{
  "contractName": "Transactions",
  "abi": [
    {
      "constant": true,
      "inputs": [],
      "name": "getClients",
      "outputs": [
        {
          "name": "",
          "type": "bytes32[]"
        },
        {
          "name": "",
          "type": "bytes32[]"
        },
        {
          "name": "",
          "type": "uint256[]"
        }
      ],
      "payable": false,
      "stateMutability": "view",
      "type": "function"
    },
    {
      "constant": true,
      "inputs": [],
      "name": "getTransactions",
      "outputs": [
        {
          "name": "",
          "type": "address[]"
        },
        {
          "name": "",
          "type": "address[]"
        },
        {
          "name": "",
          "type": "uint256[]"
        }
      ],
      "payable": false,
      "stateMutability": "view",
      "type": "function"
    },
    {
      "constant": false,
      "inputs": [
        {
          "name": "_from",
          "type": "address"
        },
        {
          "name": "_to",
          "type": "address"
        },
        {
          "name": "_money",
          "type": "uint256"
        }
      ],
      "name": "transfer",
      "outputs": [
        {
          "name": "",
          "type": "bool"
        }
      ],
      "payable": false,
      "stateMutability": "nonpayable",
      "type": "function"
    },
    {
      "constant": true,
      "inputs": [
        {
          "name": "_clientId",
          "type": "address"
        }
      ],
      "name": "clientExists",
      "outputs": [
        {
          "name": "",
          "type": "bool"
        }
      ],
      "payable": false,
      "stateMutability": "view",
      "type": "function"
    },
    {
      "constant": false,
      "inputs": [
        {
          "name": "_clientId",
          "type": "address"
        },
        {
          "name": "_firstName",
          "type": "bytes32"
        },
        {
          "name": "_lastName",
          "type": "bytes32"
        }
      ],
      "name": "addClientToBank",
      "outputs": [
        {
          "name": "success",
          "type": "bool"
        }
      ],
      "payable": false,
      "stateMutability": "nonpayable",
      "type": "function"
    },
    {
      "constant": true,
      "inputs": [
        {
          "name": "_clientId",
          "type": "address"
        }
      ],
      "name": "getBalance",
      "outputs": [
        {
          "name": "_balance",
          "type": "uint256"
        }
      ],
      "payable": false,
      "stateMutability": "view",
      "type": "function"
    },
    {
      "inputs": [
        {
          "name": "_clientId",
          "type": "address"
        },
        {
          "name": "_firstName",
          "type": "bytes32"
        },
        {
          "name": "_lastName",
          "type": "bytes32"
        }
      ],
      "payable": false,
      "stateMutability": "nonpayable",
      "type": "constructor"
    }
  ],
  "bytecode": "0x6060604052341561000f57600080fd5b604051606080611315833981016040528080519060200190919080519060200190919080519060200190919050506100456101a5565b6060604051908101604052808573ffffffffffffffffffffffffffffffffffffffff16815260200184600019168152602001836000191681525090506000805480600101828161009591906101e3565b9160005260206000209060030201600083909190915060008201518160000160006101000a81548173ffffffffffffffffffffffffffffffffffffffff021916908373ffffffffffffffffffffffffffffffffffffffff160217905550602082015181600101906000191690556040820151816002019060001916905550505083600260006101000a81548173ffffffffffffffffffffffffffffffffffffffff021916908373ffffffffffffffffffffffffffffffffffffffff160217905550612710600360008673ffffffffffffffffffffffffffffffffffffffff1673ffffffffffffffffffffffffffffffffffffffff168152602001908152602001600020819055505050505061026b565b606060405190810160405280600073ffffffffffffffffffffffffffffffffffffffff16815260200160008019168152602001600080191681525090565b8154818355818115116102105760030281600302836000526020600020918201910161020f9190610215565b5b505050565b61026891905b8082111561026457600080820160006101000a81549073ffffffffffffffffffffffffffffffffffffffff0219169055600182016000905560028201600090555060030161021b565b5090565b90565b61109b8061027a6000396000f300606060405260043610610078576000357c0100000000000000000000000000000000000000000000000000000000900463ffffffff1680636db809951461007d57806383920e9014610177578063beabacc814610271578063cdf864e8146102ea578063ec44d5671461033b578063f8b2cb4f146103a6575b600080fd5b341561008857600080fd5b6100906103f3565b60405180806020018060200180602001848103845287818151815260200191508051906020019060200280838360005b838110156100db5780820151818401526020810190506100c0565b50505050905001848103835286818151815260200191508051906020019060200280838360005b8381101561011d578082015181840152602081019050610102565b50505050905001848103825285818151815260200191508051906020019060200280838360005b8381101561015f578082015181840152602081019050610144565b50505050905001965050505050505060405180910390f35b341561018257600080fd5b61018a6105ec565b60405180806020018060200180602001848103845287818151815260200191508051906020019060200280838360005b838110156101d55780820151818401526020810190506101ba565b50505050905001848103835286818151815260200191508051906020019060200280838360005b838110156102175780820151818401526020810190506101fc565b50505050905001848103825285818151815260200191508051906020019060200280838360005b8381101561025957808201518184015260208101905061023e565b50505050905001965050505050505060405180910390f35b341561027c57600080fd5b6102d0600480803573ffffffffffffffffffffffffffffffffffffffff1690602001909190803573ffffffffffffffffffffffffffffffffffffffff1690602001909190803590602001909190505061086b565b604051808215151515815260200191505060405180910390f35b34156102f557600080fd5b610321600480803573ffffffffffffffffffffffffffffffffffffffff16906020019091905050610b0a565b604051808215151515815260200191505060405180910390f35b341561034657600080fd5b61038c600480803573ffffffffffffffffffffffffffffffffffffffff169060200190919080356000191690602001909190803560001916906020019091905050610c2c565b604051808215151515815260200191505060405180910390f35b34156103b157600080fd5b6103dd600480803573ffffffffffffffffffffffffffffffffffffffff16906020019091905050610dd9565b6040518082815260200191505060405180910390f35b6103fb610e69565b610403610e69565b61040b610e7d565b6000610415610e69565b61041d610e69565b610425610e7d565b600061042f610e91565b6000805490509550856040518059106104455750595b90808252806020026020018201604052509450856040518059106104665750595b90808252806020026020018201604052509350856040518059106104875750595b90808252806020026020018201604052509250600091505b858210156105d8576000828154811015156104b657fe5b9060005260206000209060030201606060405190810160405290816000820160009054906101000a900473ffffffffffffffffffffffffffffffffffffffff1673ffffffffffffffffffffffffffffffffffffffff1673ffffffffffffffffffffffffffffffffffffffff168152602001600182015460001916600019168152602001600282015460001916600019168152505090508060200151858381518110151561055f57fe5b9060200190602002019060001916908160001916815250508060400151848381518110151561058a57fe5b9060200190602002019060001916908160001916815250506105af8160000151610dd9565b83838151811015156105bd57fe5b9060200190602002018181525050818060010192505061049f565b848484985098509850505050505050909192565b6105f4610ecf565b6105fc610ecf565b610604610e7d565b600061060e610ecf565b610616610ecf565b61061e610e7d565b6000610628610ee3565b60018054905095508560405180591061063e5750595b908082528060200260200182016040525094508560405180591061065f5750595b90808252806020026020018201604052509350856040518059106106805750595b90808252806020026020018201604052509250600091505b85821015610857576001828154811015156106af57fe5b9060005260206000209060040201608060405190810160405290816000820160009054906101000a900473ffffffffffffffffffffffffffffffffffffffff1673ffffffffffffffffffffffffffffffffffffffff1673ffffffffffffffffffffffffffffffffffffffff1681526020016001820160009054906101000a900473ffffffffffffffffffffffffffffffffffffffff1673ffffffffffffffffffffffffffffffffffffffff1673ffffffffffffffffffffffffffffffffffffffff1681526020016002820154815260200160038201548152505090508060000151858381518110151561079e57fe5b9060200190602002019073ffffffffffffffffffffffffffffffffffffffff16908173ffffffffffffffffffffffffffffffffffffffff1681525050806020015184838151811015156107ed57fe5b9060200190602002019073ffffffffffffffffffffffffffffffffffffffff16908173ffffffffffffffffffffffffffffffffffffffff16815250508060400151838381518110151561083c57fe5b90602001906020020181815250508180600101925050610698565b848484985098509850505050505050909192565b6000610875610ee3565b6001151561088286610b0a565b1515148061089c57506001151561089885610b0a565b1515145b15610afd576000600360008773ffffffffffffffffffffffffffffffffffffffff1673ffffffffffffffffffffffffffffffffffffffff16815260200190815260200160002054148061092d575082600360008773ffffffffffffffffffffffffffffffffffffffff1673ffffffffffffffffffffffffffffffffffffffff16815260200190815260200160002054105b1561093b5760009150610b02565b6080604051908101604052808673ffffffffffffffffffffffffffffffffffffffff1681526020018573ffffffffffffffffffffffffffffffffffffffff16815260200142815260200184815250905082600360008773ffffffffffffffffffffffffffffffffffffffff1673ffffffffffffffffffffffffffffffffffffffff1681526020019081526020016000206000828254039250508190555082600360008673ffffffffffffffffffffffffffffffffffffffff1673ffffffffffffffffffffffffffffffffffffffff1681526020019081526020016000206000828254019250508190555060018054806001018281610a399190610f38565b9160005260206000209060040201600083909190915060008201518160000160006101000a81548173ffffffffffffffffffffffffffffffffffffffff021916908373ffffffffffffffffffffffffffffffffffffffff16021790555060208201518160010160006101000a81548173ffffffffffffffffffffffffffffffffffffffff021916908373ffffffffffffffffffffffffffffffffffffffff160217905550604082015181600201556060820151816003015550505060019150610b02565b600091505b509392505050565b6000806000610b17610e91565b6000805490509250600091505b82821015610c1f57600082815481101515610b3b57fe5b9060005260206000209060030201606060405190810160405290816000820160009054906101000a900473ffffffffffffffffffffffffffffffffffffffff1673ffffffffffffffffffffffffffffffffffffffff1673ffffffffffffffffffffffffffffffffffffffff168152602001600182015460001916600019168152602001600282015460001916600019168152505090508473ffffffffffffffffffffffffffffffffffffffff16816000015173ffffffffffffffffffffffffffffffffffffffff161415610c125760019350610c24565b8180600101925050610b24565b600093505b505050919050565b6000610c36610e91565b60008573ffffffffffffffffffffffffffffffffffffffff16141515610dcc576060604051908101604052808673ffffffffffffffffffffffffffffffffffffffff1681526020018560001916815260200184600019168152509050600260009054906101000a900473ffffffffffffffffffffffffffffffffffffffff1673ffffffffffffffffffffffffffffffffffffffff168573ffffffffffffffffffffffffffffffffffffffff16141515610d2f576000600360008773ffffffffffffffffffffffffffffffffffffffff1673ffffffffffffffffffffffffffffffffffffffff168152602001908152602001600020819055505b60008054806001018281610d439190610f6a565b9160005260206000209060030201600083909190915060008201518160000160006101000a81548173ffffffffffffffffffffffffffffffffffffffff021916908373ffffffffffffffffffffffffffffffffffffffff160217905550602082015181600101906000191690556040820151816002019060001916905550505060019150610dd1565b600091505b509392505050565b6000808273ffffffffffffffffffffffffffffffffffffffff16141515610e5f5760011515610e0783610b0a565b15151415610e5657600360008373ffffffffffffffffffffffffffffffffffffffff1673ffffffffffffffffffffffffffffffffffffffff168152602001908152602001600020549050610e64565b60009050610e64565b600090505b919050565b602060405190810160405280600081525090565b602060405190810160405280600081525090565b606060405190810160405280600073ffffffffffffffffffffffffffffffffffffffff16815260200160008019168152602001600080191681525090565b602060405190810160405280600081525090565b608060405190810160405280600073ffffffffffffffffffffffffffffffffffffffff168152602001600073ffffffffffffffffffffffffffffffffffffffff16815260200160008152602001600081525090565b815481835581811511610f6557600402816004028360005260206000209182019101610f649190610f9c565b5b505050565b815481835581811511610f9757600302816003028360005260206000209182019101610f969190611019565b5b505050565b61101691905b8082111561101257600080820160006101000a81549073ffffffffffffffffffffffffffffffffffffffff02191690556001820160006101000a81549073ffffffffffffffffffffffffffffffffffffffff02191690556002820160009055600382016000905550600401610fa2565b5090565b90565b61106c91905b8082111561106857600080820160006101000a81549073ffffffffffffffffffffffffffffffffffffffff0219169055600182016000905560028201600090555060030161101f565b5090565b905600a165627a7a72305820c5587d174916c10387e8a29ec81b47e7a5c03fbdebb32cedb697489dbf32363e0029",
  "source": "/*********************************** SOME COMMANDS FOR TESTING ***********************************\n    var contract = Transactions.deployed()\n    var accounts = web3.eth.accounts\n    contract.then(function(instance) {return instance.getClients()})\n    contract.then(function(instance) {return instance.getBalance.call(accounts[0])}).then(function(balance) {return balance.toNumber()})\n    contract.then(function(instance) {return instance.addClientToBank(accounts[1], \"Satoshi\", \"Nakamoto\").then(function(success) { return success }) })\n    contract.then(function(instance) {return instance.getClients()})\n    contract.then(function(instance) {return instance.transfer(accounts[0], accounts[1], 100).then(function(success) { return success }) })\n**************************************************************************************************/\n\npragma solidity ^0.4.4;\n\ncontract Transactions {\n\n    struct Client {\n        address clientId;\n        bytes32 firstName;\n        bytes32 lastName;\n    }\n\n    struct Transaction {\n        address senderId;\n        address receiverId;\n        uint timestamp;\n        uint amount;\n    }\n\n    // state variables\n    Client[] arrayOfClients;\n    Transaction[] arrayOfTransactions;\n    address owner;\n    mapping (address => uint) clientBalance;\n\n    // constructor\n    function Transactions(address _clientId, bytes32 _firstName, bytes32 _lastName) public {\n      Client memory newClient = Client(_clientId, _firstName, _lastName);\n      arrayOfClients.push(newClient);\n      owner = _clientId;\n      clientBalance[_clientId] = 10000;\n    }\n\n    function addClientToBank(address _clientId, bytes32 _firstName, bytes32 _lastName) public returns (bool success) {\n        if (address(_clientId) != 0) {\n            Client memory newClient = Client(_clientId, _firstName, _lastName);\n            if (_clientId != owner) {\n                clientBalance[_clientId] = 0;\n            }\n            arrayOfClients.push(newClient);\n            return true;\n        } else {\n            return false;\n        }\n    }\n\n    function getBalance(address _clientId) public view returns (uint _balance) {\n        if (address(_clientId) != 0) {\n            if (clientExists(_clientId) == true) {\n                return clientBalance[_clientId];\n            } else {\n                return 0;\n            }\n        } else {\n            return 0;\n        }\n    }\n\n    function getClients() public view returns (bytes32[], bytes32[], uint[]) {\n      uint length = arrayOfClients.length;\n      bytes32[] memory firstNames = new bytes32[](length);\n      bytes32[] memory lastNames = new bytes32[](length);\n      uint[] memory balances = new uint[](length);\n\n      for (uint i = 0; i < length; i++) {\n        Client memory currentClient = arrayOfClients[i];\n        firstNames[i] = currentClient.firstName;\n        lastNames[i] = currentClient.lastName;\n        balances[i] = getBalance(currentClient.clientId);\n      }\n      return (firstNames, lastNames, balances);\n    }\n\n    function clientExists(address _clientId) public view returns (bool) {\n      uint length = arrayOfClients.length;\n      for (uint i = 0; i < length; i++) {\n        Client memory currentClient = arrayOfClients[i];\n        if (currentClient.clientId == _clientId) {\n          return true;\n        }\n      }\n      return false;\n    }\n\n    function getTransactions() public view returns (address[], address[], uint[]) {\n\n      uint length = arrayOfTransactions.length;\n      address[] memory senders = new address[](length);\n      address[] memory receivers = new address[](length);\n      uint[] memory timestamps = new uint[](length);\n\n      for (uint i = 0; i < length; i++) {\n        Transaction memory currentTransaction = arrayOfTransactions[i];\n        senders[i] = currentTransaction.senderId;\n        receivers[i] = currentTransaction.receiverId;\n        timestamps[i] = currentTransaction.timestamp;\n      }\n      return (senders, receivers, timestamps);\n    }\n\n    function transfer(address _from, address _to, uint _money) public returns(bool) {\n        if (clientExists(_from) == true || clientExists(_to) == true) {\n            if (clientBalance[_from] == 0 || clientBalance[_from] < _money) {\n                return false;\n            }\n            Transaction memory newTransaction = Transaction(_from, _to, now, _money);\n            clientBalance[_from] -= _money;\n            clientBalance[_to] += _money;\n            arrayOfTransactions.push(newTransaction);\n            return true;\n        } else {\n            return false;\n        }\n    }\n}",
  "sourcePath": "/Users/antoineboxho/Developer/blockchain/Dapp/transactions-dapp/contracts/Transactions.sol",
  "compiler": {
    "name": "solc",
    "version": "0.4.18+commit.9cf6e910.Emscripten.clang"
  },
  "schemaVersion": "1.0.1",
  "updatedAt": "2017-12-09T20:08:07.500Z"
}