{
  "contractName": "Transactions",
  "abi": [
    {
      "constant": true,
      "inputs": [],
      "name": "getClients",
      "outputs": [
        {
          "name": "",
          "type": "address[]"
        },
        {
          "name": "",
          "type": "bytes32[]"
        },
        {
          "name": "",
          "type": "bytes32[]"
        },
        {
          "name": "",
          "type": "uint256[]"
        }
      ],
      "payable": false,
      "stateMutability": "view",
      "type": "function"
    },
    {
      "constant": true,
      "inputs": [],
      "name": "getTransactions",
      "outputs": [
        {
          "name": "",
          "type": "address[]"
        },
        {
          "name": "",
          "type": "address[]"
        },
        {
          "name": "",
          "type": "uint256[]"
        },
        {
          "name": "",
          "type": "uint256[]"
        }
      ],
      "payable": false,
      "stateMutability": "view",
      "type": "function"
    },
    {
      "constant": false,
      "inputs": [
        {
          "name": "_from",
          "type": "address"
        },
        {
          "name": "_to",
          "type": "address"
        },
        {
          "name": "_money",
          "type": "uint256"
        }
      ],
      "name": "transfer",
      "outputs": [
        {
          "name": "",
          "type": "bool"
        }
      ],
      "payable": false,
      "stateMutability": "nonpayable",
      "type": "function"
    },
    {
      "constant": true,
      "inputs": [
        {
          "name": "_clientId",
          "type": "address"
        }
      ],
      "name": "clientExists",
      "outputs": [
        {
          "name": "",
          "type": "bool"
        }
      ],
      "payable": false,
      "stateMutability": "view",
      "type": "function"
    },
    {
      "constant": false,
      "inputs": [
        {
          "name": "_clientId",
          "type": "address"
        },
        {
          "name": "_firstName",
          "type": "bytes32"
        },
        {
          "name": "_lastName",
          "type": "bytes32"
        }
      ],
      "name": "addClientToBank",
      "outputs": [
        {
          "name": "success",
          "type": "bool"
        }
      ],
      "payable": false,
      "stateMutability": "nonpayable",
      "type": "function"
    },
    {
      "constant": true,
      "inputs": [
        {
          "name": "_clientId",
          "type": "address"
        }
      ],
      "name": "getBalance",
      "outputs": [
        {
          "name": "_balance",
          "type": "uint256"
        }
      ],
      "payable": false,
      "stateMutability": "view",
      "type": "function"
    },
    {
      "inputs": [
        {
          "name": "_clientId",
          "type": "address"
        },
        {
          "name": "_firstName",
          "type": "bytes32"
        },
        {
          "name": "_lastName",
          "type": "bytes32"
        }
      ],
      "payable": false,
      "stateMutability": "nonpayable",
      "type": "constructor"
    }
  ],
  "bytecode": "0x6060604052341561000f57600080fd5b6040516060806114aa833981016040528080519060200190919080519060200190919080519060200190919050506100456101a5565b6060604051908101604052808573ffffffffffffffffffffffffffffffffffffffff16815260200184600019168152602001836000191681525090506000805480600101828161009591906101e3565b9160005260206000209060030201600083909190915060008201518160000160006101000a81548173ffffffffffffffffffffffffffffffffffffffff021916908373ffffffffffffffffffffffffffffffffffffffff160217905550602082015181600101906000191690556040820151816002019060001916905550505083600260006101000a81548173ffffffffffffffffffffffffffffffffffffffff021916908373ffffffffffffffffffffffffffffffffffffffff160217905550612710600360008673ffffffffffffffffffffffffffffffffffffffff1673ffffffffffffffffffffffffffffffffffffffff168152602001908152602001600020819055505050505061026b565b606060405190810160405280600073ffffffffffffffffffffffffffffffffffffffff16815260200160008019168152602001600080191681525090565b8154818355818115116102105760030281600302836000526020600020918201910161020f9190610215565b5b505050565b61026891905b8082111561026457600080820160006101000a81549073ffffffffffffffffffffffffffffffffffffffff0219169055600182016000905560028201600090555060030161021b565b5090565b90565b6112308061027a6000396000f300606060405260043610610078576000357c0100000000000000000000000000000000000000000000000000000000900463ffffffff1680636db809951461007d57806383920e90146101bf578063beabacc814610301578063cdf864e81461037a578063ec44d567146103cb578063f8b2cb4f14610436575b600080fd5b341561008857600080fd5b610090610483565b6040518080602001806020018060200180602001858103855289818151815260200191508051906020019060200280838360005b838110156100df5780820151818401526020810190506100c4565b50505050905001858103845288818151815260200191508051906020019060200280838360005b83811015610121578082015181840152602081019050610106565b50505050905001858103835287818151815260200191508051906020019060200280838360005b83811015610163578082015181840152602081019050610148565b50505050905001858103825286818151815260200191508051906020019060200280838360005b838110156101a557808201518184015260208101905061018a565b505050509050019850505050505050505060405180910390f35b34156101ca57600080fd5b6101d2610701565b6040518080602001806020018060200180602001858103855289818151815260200191508051906020019060200280838360005b83811015610221578082015181840152602081019050610206565b50505050905001858103845288818151815260200191508051906020019060200280838360005b83811015610263578082015181840152602081019050610248565b50505050905001858103835287818151815260200191508051906020019060200280838360005b838110156102a557808201518184015260208101905061028a565b50505050905001858103825286818151815260200191508051906020019060200280838360005b838110156102e75780820151818401526020810190506102cc565b505050509050019850505050505050505060405180910390f35b341561030c57600080fd5b610360600480803573ffffffffffffffffffffffffffffffffffffffff1690602001909190803573ffffffffffffffffffffffffffffffffffffffff169060200190919080359060200190919050506109d7565b604051808215151515815260200191505060405180910390f35b341561038557600080fd5b6103b1600480803573ffffffffffffffffffffffffffffffffffffffff16906020019091905050610c76565b604051808215151515815260200191505060405180910390f35b34156103d657600080fd5b61041c600480803573ffffffffffffffffffffffffffffffffffffffff169060200190919080356000191690602001909190803560001916906020019091905050610dc1565b604051808215151515815260200191505060405180910390f35b341561044157600080fd5b61046d600480803573ffffffffffffffffffffffffffffffffffffffff16906020019091905050610f6e565b6040518082815260200191505060405180910390f35b61048b610ffe565b610493611012565b61049b611012565b6104a3611026565b60006104ad610ffe565b6104b5611012565b6104bd611012565b6104c5611026565b60006104cf61103a565b6000805490509650866040518059106104e55750595b90808252806020026020018201604052509550866040518059106105065750595b90808252806020026020018201604052509450866040518059106105275750595b90808252806020026020018201604052509350866040518059106105485750595b90808252806020026020018201604052509250600091505b868210156106e85760008281548110151561057757fe5b9060005260206000209060030201606060405190810160405290816000820160009054906101000a900473ffffffffffffffffffffffffffffffffffffffff1673ffffffffffffffffffffffffffffffffffffffff1673ffffffffffffffffffffffffffffffffffffffff168152602001600182015460001916600019168152602001600282015460001916600019168152505090508060000151868381518110151561062057fe5b9060200190602002019073ffffffffffffffffffffffffffffffffffffffff16908173ffffffffffffffffffffffffffffffffffffffff16815250508060200151858381518110151561066f57fe5b9060200190602002019060001916908160001916815250508060400151848381518110151561069a57fe5b9060200190602002019060001916908160001916815250506106bf8160000151610f6e565b83838151811015156106cd57fe5b90602001906020020181815250508180600101925050610560565b858585859a509a509a509a505050505050505090919293565b610709610ffe565b610711610ffe565b610719611026565b610721611026565b600061072b610ffe565b610733610ffe565b61073b611026565b610743611026565b600061074d611078565b6001805490509650866040518059106107635750595b90808252806020026020018201604052509550866040518059106107845750595b90808252806020026020018201604052509450866040518059106107a55750595b90808252806020026020018201604052509350866040518059106107c65750595b90808252806020026020018201604052509250600091505b868210156109be576001828154811015156107f557fe5b9060005260206000209060040201608060405190810160405290816000820160009054906101000a900473ffffffffffffffffffffffffffffffffffffffff1673ffffffffffffffffffffffffffffffffffffffff1673ffffffffffffffffffffffffffffffffffffffff1681526020016001820160009054906101000a900473ffffffffffffffffffffffffffffffffffffffff1673ffffffffffffffffffffffffffffffffffffffff1673ffffffffffffffffffffffffffffffffffffffff168152602001600282015481526020016003820154815250509050806000015186838151811015156108e457fe5b9060200190602002019073ffffffffffffffffffffffffffffffffffffffff16908173ffffffffffffffffffffffffffffffffffffffff16815250508060200151858381518110151561093357fe5b9060200190602002019073ffffffffffffffffffffffffffffffffffffffff16908173ffffffffffffffffffffffffffffffffffffffff16815250508060400151848381518110151561098257fe5b9060200190602002018181525050806060015183838151811015156109a357fe5b906020019060200201818152505081806001019250506107de565b858585859a509a509a509a505050505050505090919293565b60006109e1611078565b600115156109ee86610c76565b15151480610a08575060011515610a0485610c76565b1515145b15610c69576000600360008773ffffffffffffffffffffffffffffffffffffffff1673ffffffffffffffffffffffffffffffffffffffff168152602001908152602001600020541480610a99575082600360008773ffffffffffffffffffffffffffffffffffffffff1673ffffffffffffffffffffffffffffffffffffffff16815260200190815260200160002054105b15610aa75760009150610c6e565b6080604051908101604052808673ffffffffffffffffffffffffffffffffffffffff1681526020018573ffffffffffffffffffffffffffffffffffffffff16815260200142815260200184815250905082600360008773ffffffffffffffffffffffffffffffffffffffff1673ffffffffffffffffffffffffffffffffffffffff1681526020019081526020016000206000828254039250508190555082600360008673ffffffffffffffffffffffffffffffffffffffff1673ffffffffffffffffffffffffffffffffffffffff1681526020019081526020016000206000828254019250508190555060018054806001018281610ba591906110cd565b9160005260206000209060040201600083909190915060008201518160000160006101000a81548173ffffffffffffffffffffffffffffffffffffffff021916908373ffffffffffffffffffffffffffffffffffffffff16021790555060208201518160010160006101000a81548173ffffffffffffffffffffffffffffffffffffffff021916908373ffffffffffffffffffffffffffffffffffffffff160217905550604082015181600201556060820151816003015550505060019150610c6e565b600091505b509392505050565b6000806000610c8361103a565b60008573ffffffffffffffffffffffffffffffffffffffff16141515610db4576000805490509250600091505b82821015610dab57600082815481101515610cc757fe5b9060005260206000209060030201606060405190810160405290816000820160009054906101000a900473ffffffffffffffffffffffffffffffffffffffff1673ffffffffffffffffffffffffffffffffffffffff1673ffffffffffffffffffffffffffffffffffffffff168152602001600182015460001916600019168152602001600282015460001916600019168152505090508473ffffffffffffffffffffffffffffffffffffffff16816000015173ffffffffffffffffffffffffffffffffffffffff161415610d9e5760019350610db9565b8180600101925050610cb0565b60009350610db9565b600093505b505050919050565b6000610dcb61103a565b60008573ffffffffffffffffffffffffffffffffffffffff16141515610f61576060604051908101604052808673ffffffffffffffffffffffffffffffffffffffff1681526020018560001916815260200184600019168152509050600260009054906101000a900473ffffffffffffffffffffffffffffffffffffffff1673ffffffffffffffffffffffffffffffffffffffff168573ffffffffffffffffffffffffffffffffffffffff16141515610ec4576000600360008773ffffffffffffffffffffffffffffffffffffffff1673ffffffffffffffffffffffffffffffffffffffff168152602001908152602001600020819055505b60008054806001018281610ed891906110ff565b9160005260206000209060030201600083909190915060008201518160000160006101000a81548173ffffffffffffffffffffffffffffffffffffffff021916908373ffffffffffffffffffffffffffffffffffffffff160217905550602082015181600101906000191690556040820151816002019060001916905550505060019150610f66565b600091505b509392505050565b6000808273ffffffffffffffffffffffffffffffffffffffff16141515610ff45760011515610f9c83610c76565b15151415610feb57600360008373ffffffffffffffffffffffffffffffffffffffff1673ffffffffffffffffffffffffffffffffffffffff168152602001908152602001600020549050610ff9565b60009050610ff9565b600090505b919050565b602060405190810160405280600081525090565b602060405190810160405280600081525090565b602060405190810160405280600081525090565b606060405190810160405280600073ffffffffffffffffffffffffffffffffffffffff16815260200160008019168152602001600080191681525090565b608060405190810160405280600073ffffffffffffffffffffffffffffffffffffffff168152602001600073ffffffffffffffffffffffffffffffffffffffff16815260200160008152602001600081525090565b8154818355818115116110fa576004028160040283600052602060002091820191016110f99190611131565b5b505050565b81548183558181151161112c5760030281600302836000526020600020918201910161112b91906111ae565b5b505050565b6111ab91905b808211156111a757600080820160006101000a81549073ffffffffffffffffffffffffffffffffffffffff02191690556001820160006101000a81549073ffffffffffffffffffffffffffffffffffffffff02191690556002820160009055600382016000905550600401611137565b5090565b90565b61120191905b808211156111fd57600080820160006101000a81549073ffffffffffffffffffffffffffffffffffffffff021916905560018201600090556002820160009055506003016111b4565b5090565b905600a165627a7a72305820cf0c65eeea8c6e013703457a364d9435f29d3eea9a9c9a083f63f0d6b10f3dda0029",
  "source": "/*********************************** SOME COMMANDS FOR TESTING ***********************************\n    var contract = Transactions.deployed()\n    var accounts = web3.eth.accounts\n    contract.then(function(instance) {return instance.getClients()})\n    contract.then(function(instance) {return instance.getBalance.call(accounts[0])}).then(function(balance) {return balance.toNumber()})\n    contract.then(function(instance) {return instance.addClientToBank(accounts[1], \"Satoshi\", \"Nakamoto\").then(function(success) { return success }) })\n    contract.then(function(instance) {return instance.getClients()})\n    contract.then(function(instance) {return instance.transfer(accounts[0], accounts[1], 100).then(function(success) { return success }) })\n**************************************************************************************************/\n\npragma solidity ^0.4.4;\n\ncontract Transactions {\n\n    struct Client {\n        address clientId;\n        bytes32 firstName;\n        bytes32 lastName;\n    }\n\n    struct Transaction {\n        address senderId;\n        address receiverId;\n        uint timestamp;\n        uint amount;\n    }\n\n    // state variables\n    Client[] arrayOfClients;\n    Transaction[] arrayOfTransactions;\n    address owner;\n    mapping (address => uint) clientBalance;\n\n    // constructor\n    function Transactions(address _clientId, bytes32 _firstName, bytes32 _lastName) public {\n      Client memory newClient = Client(_clientId, _firstName, _lastName);\n      arrayOfClients.push(newClient);\n      owner = _clientId;\n      clientBalance[_clientId] = 10000;\n    }\n\n    function addClientToBank(address _clientId, bytes32 _firstName, bytes32 _lastName) public returns (bool success) {\n        if (address(_clientId) != 0) {\n            Client memory newClient = Client(_clientId, _firstName, _lastName);\n            if (_clientId != owner) {\n                clientBalance[_clientId] = 0;\n            }\n            arrayOfClients.push(newClient);\n            return true;\n        } else {\n            return false;\n        }\n    }\n\n    function getBalance(address _clientId) public view returns (uint _balance) {\n        if (address(_clientId) != 0) {\n            if (clientExists(_clientId) == true) {\n                return clientBalance[_clientId];\n            } else {\n                return 0;\n            }\n        } else {\n            return 0;\n        }\n    }\n\n    function getClients() public view returns (address[], bytes32[], bytes32[], uint[]) {\n        uint length = arrayOfClients.length;\n        address[] memory addresses = new address[](length);\n        bytes32[] memory firstNames = new bytes32[](length);\n        bytes32[] memory lastNames = new bytes32[](length);\n        uint[] memory balances = new uint[](length);\n\n        for (uint i = 0; i < length; i++) {\n            Client memory currentClient = arrayOfClients[i];\n            addresses[i] = currentClient.clientId;\n            firstNames[i] = currentClient.firstName;\n            lastNames[i] = currentClient.lastName;\n            balances[i] = getBalance(currentClient.clientId);\n        }\n        return (addresses, firstNames, lastNames, balances);\n    }\n\n    function clientExists(address _clientId) public view returns (bool) {\n        if (address(_clientId) != 0) {\n            uint length = arrayOfClients.length;\n            for (uint i = 0; i < length; i++) {\n                Client memory currentClient = arrayOfClients[i];\n                if (currentClient.clientId == _clientId) {\n                    return true;\n                }\n            }\n            return false;\n        } else {\n            return false;\n        }\n    }\n\n    function getTransactions() public view returns (address[], address[], uint[], uint[]) {\n\n      uint length = arrayOfTransactions.length;\n      address[] memory senders = new address[](length);\n      address[] memory receivers = new address[](length);\n      uint[] memory timestamps = new uint[](length);\n      uint[] memory amounts = new uint[](length);\n\n      for (uint i = 0; i < length; i++) {\n        Transaction memory currentTransaction = arrayOfTransactions[i];\n        senders[i] = currentTransaction.senderId;\n        receivers[i] = currentTransaction.receiverId;\n        timestamps[i] = currentTransaction.timestamp;\n        amounts[i] = currentTransaction.amount;\n      }\n      return (senders, receivers, timestamps, amounts);\n    }\n\n    function transfer(address _from, address _to, uint _money) public returns(bool) {\n        if (clientExists(_from) == true || clientExists(_to) == true) {\n            if (clientBalance[_from] == 0 || clientBalance[_from] < _money) {\n                return false;\n            }\n            Transaction memory newTransaction = Transaction(_from, _to, now, _money);\n            clientBalance[_from] -= _money;\n            clientBalance[_to] += _money;\n            arrayOfTransactions.push(newTransaction);\n            return true;\n        } else {\n            return false;\n        }\n    }\n}",
  "sourcePath": "/Users/antoineboxho/Developer/blockchain/Dapp/transactions-dapp/contracts/Transactions.sol",
  "compiler": {
    "name": "solc",
    "version": "0.4.18+commit.9cf6e910.Emscripten.clang"
  },
  "schemaVersion": "1.0.1",
  "updatedAt": "2017-12-10T23:43:27.917Z"
}