{
  "contractName": "Transactions",
  "abi": [
    {
      "inputs": [],
      "payable": false,
      "stateMutability": "view",
      "type": "function",
      "constant": true,
      "name": "getClients",
      "outputs": [
        {
          "components": [
            {
              "name": "clientId",
              "type": "address"
            },
            {
              "name": "firstName",
              "type": "bytes32"
            },
            {
              "name": "lastName",
              "type": "bytes32"
            }
          ],
          "name": "",
          "type": "tuple[]"
        }
      ]
    },
    {
      "constant": true,
      "inputs": [],
      "name": "getTransactions",
      "outputs": [
        {
          "components": [
            {
              "name": "senderId",
              "type": "address"
            },
            {
              "name": "receiverId",
              "type": "address"
            },
            {
              "name": "timestamp",
              "type": "uint256"
            },
            {
              "name": "amount",
              "type": "uint256"
            }
          ],
          "name": "",
          "type": "tuple[]"
        }
      ],
      "payable": false,
      "stateMutability": "view",
      "type": "function"
    },
    {
      "constant": false,
      "inputs": [
        {
          "name": "_from",
          "type": "address"
        },
        {
          "name": "_to",
          "type": "address"
        },
        {
          "name": "_money",
          "type": "uint256"
        }
      ],
      "name": "transfer",
      "outputs": [
        {
          "name": "",
          "type": "bool"
        }
      ],
      "payable": false,
      "stateMutability": "nonpayable",
      "type": "function"
    },
    {
      "constant": false,
      "inputs": [
        {
          "name": "_clientId",
          "type": "address"
        },
        {
          "name": "_firstName",
          "type": "bytes32"
        },
        {
          "name": "_lastName",
          "type": "bytes32"
        }
      ],
      "name": "addClientToBank",
      "outputs": [
        {
          "name": "success",
          "type": "bool"
        }
      ],
      "payable": false,
      "stateMutability": "nonpayable",
      "type": "function"
    },
    {
      "constant": true,
      "inputs": [
        {
          "name": "_clientId",
          "type": "address"
        }
      ],
      "name": "getBalance",
      "outputs": [
        {
          "name": "_balance",
          "type": "uint256"
        }
      ],
      "payable": false,
      "stateMutability": "view",
      "type": "function"
    },
    {
      "inputs": [],
      "payable": false,
      "stateMutability": "nonpayable",
      "type": "constructor"
    }
  ],
  "bytecode": "0x6060604052341561000f57600080fd5b33600260006101000a81548173ffffffffffffffffffffffffffffffffffffffff021916908373ffffffffffffffffffffffffffffffffffffffff160217905550612710600360003373ffffffffffffffffffffffffffffffffffffffff1673ffffffffffffffffffffffffffffffffffffffff16815260200190815260200160002081905550610c28806100a56000396000f30060606040526004361061006d576000357c0100000000000000000000000000000000000000000000000000000000900463ffffffff1680636db809951461007257806383920e90146100d7578063beabacc81461013c578063ec44d567146101b5578063f8b2cb4f14610220575b600080fd5b341561007d57600080fd5b61008561026d565b60405180806020018281038252838181518152602001915080516000925b818410156100c657828490602001906020020151815260200192600101926100a3565b925050509250505060405180910390f35b34156100e257600080fd5b6100ea6103b0565b60405180806020018281038252838181518152602001915080516000925b8184101561012b5782849060200190602002015181526020019260010192610108565b925050509250505060405180910390f35b341561014757600080fd5b61019b600480803573ffffffffffffffffffffffffffffffffffffffff1690602001909190803573ffffffffffffffffffffffffffffffffffffffff1690602001909190803590602001909190505061053a565b604051808215151515815260200191505060405180910390f35b34156101c057600080fd5b610206600480803573ffffffffffffffffffffffffffffffffffffffff1690602001909190803560001916906020019091908035600019169060200190919050506107a4565b604051808215151515815260200191505060405180910390f35b341561022b57600080fd5b610257600480803573ffffffffffffffffffffffffffffffffffffffff1690602001909190505061092e565b6040518082815260200191505060405180910390f35b610275610977565b600061027f610977565b600080805490509250826040518059106102965750595b9080825280602002602001820160405280156102cc57816020015b6102b961098b565b8152602001906001900390816102b15790505b509150600090505b828110156103a7576000818154811015156102eb57fe5b9060005260206000209060030201606060405190810160405290816000820160009054906101000a900473ffffffffffffffffffffffffffffffffffffffff1673ffffffffffffffffffffffffffffffffffffffff1673ffffffffffffffffffffffffffffffffffffffff1681526020016001820154600019166000191681526020016002820154600019166000191681525050828281518110151561038d57fe5b9060200190602002018190525080806001019150506102d4565b81935050505090565b6103b86109c9565b60006103c26109c9565b60006001805490509250826040518059106103da5750595b90808252806020026020018201604052801561041057816020015b6103fd6109dd565b8152602001906001900390816103f55790505b509150600090505b828110156105315760018181548110151561042f57fe5b9060005260206000209060040201608060405190810160405290816000820160009054906101000a900473ffffffffffffffffffffffffffffffffffffffff1673ffffffffffffffffffffffffffffffffffffffff1673ffffffffffffffffffffffffffffffffffffffff1681526020016001820160009054906101000a900473ffffffffffffffffffffffffffffffffffffffff1673ffffffffffffffffffffffffffffffffffffffff1673ffffffffffffffffffffffffffffffffffffffff16815260200160028201548152602001600382015481525050828281518110151561051757fe5b906020019060200201819052508080600101915050610418565b81935050505090565b6000610544610a32565b6000600360008773ffffffffffffffffffffffffffffffffffffffff1673ffffffffffffffffffffffffffffffffffffffff1681526020019081526020016000205414806105d0575082600360008773ffffffffffffffffffffffffffffffffffffffff1673ffffffffffffffffffffffffffffffffffffffff16815260200190815260200160002054105b156105de576000915061079c565b6080604051908101604052808673ffffffffffffffffffffffffffffffffffffffff1681526020018573ffffffffffffffffffffffffffffffffffffffff16815260200142815260200184815250905082600360008773ffffffffffffffffffffffffffffffffffffffff1673ffffffffffffffffffffffffffffffffffffffff1681526020019081526020016000206000828254039250508190555082600360008673ffffffffffffffffffffffffffffffffffffffff1673ffffffffffffffffffffffffffffffffffffffff16815260200190815260200160002060008282540192505081905550600180548060010182816106dc9190610a87565b9160005260206000209060040201600083909190915060008201518160000160006101000a81548173ffffffffffffffffffffffffffffffffffffffff021916908373ffffffffffffffffffffffffffffffffffffffff16021790555060208201518160010160006101000a81548173ffffffffffffffffffffffffffffffffffffffff021916908373ffffffffffffffffffffffffffffffffffffffff1602179055506040820151816002015560608201518160030155505050600191505b509392505050565b60006107ae610ab9565b60008573ffffffffffffffffffffffffffffffffffffffff1614156107d65760009150610926565b6060604051908101604052808673ffffffffffffffffffffffffffffffffffffffff16815260200185600019168152602001846000191681525090503373ffffffffffffffffffffffffffffffffffffffff168573ffffffffffffffffffffffffffffffffffffffff1614151561088d576000600360008773ffffffffffffffffffffffffffffffffffffffff1673ffffffffffffffffffffffffffffffffffffffff168152602001908152602001600020819055505b600080548060010182816108a19190610af7565b9160005260206000209060030201600083909190915060008201518160000160006101000a81548173ffffffffffffffffffffffffffffffffffffffff021916908373ffffffffffffffffffffffffffffffffffffffff1602179055506020820151816001019060001916905560408201518160020190600019169055505050600191505b509392505050565b6000600360008373ffffffffffffffffffffffffffffffffffffffff1673ffffffffffffffffffffffffffffffffffffffff168152602001908152602001600020549050919050565b602060405190810160405280600081525090565b606060405190810160405280600073ffffffffffffffffffffffffffffffffffffffff16815260200160008019168152602001600080191681525090565b602060405190810160405280600081525090565b608060405190810160405280600073ffffffffffffffffffffffffffffffffffffffff168152602001600073ffffffffffffffffffffffffffffffffffffffff16815260200160008152602001600081525090565b608060405190810160405280600073ffffffffffffffffffffffffffffffffffffffff168152602001600073ffffffffffffffffffffffffffffffffffffffff16815260200160008152602001600081525090565b815481835581811511610ab457600402816004028360005260206000209182019101610ab39190610b29565b5b505050565b606060405190810160405280600073ffffffffffffffffffffffffffffffffffffffff16815260200160008019168152602001600080191681525090565b815481835581811511610b2457600302816003028360005260206000209182019101610b239190610ba6565b5b505050565b610ba391905b80821115610b9f57600080820160006101000a81549073ffffffffffffffffffffffffffffffffffffffff02191690556001820160006101000a81549073ffffffffffffffffffffffffffffffffffffffff02191690556002820160009055600382016000905550600401610b2f565b5090565b90565b610bf991905b80821115610bf557600080820160006101000a81549073ffffffffffffffffffffffffffffffffffffffff02191690556001820160009055600282016000905550600301610bac565b5090565b905600a165627a7a723058206be366b6aba8e31e3915a7113b7dbe14a332d732fbf1cb5a53f0b8b5d24e2c3d0029",
  "source": "pragma solidity ^0.4.4;\n\ncontract Transactions {\n\n    struct Client {\n        address clientId;\n        bytes32 firstName;\n        bytes32 lastName;\n    }\n\n    struct Transaction {\n        address senderId;\n        address receiverId;\n        uint timestamp;\n        uint amount;\n    }\n\n    Client[] arrayOfClients;\n    Transaction[] arrayOfTransactions;\n    address owner;\n    mapping (address => uint) clientBalance;\n\n    function Transactions() public {\n        owner = msg.sender;\n        clientBalance[msg.sender] = 10000;\n    }\n\n    function addClientToBank(address _clientId, bytes32 _firstName, bytes32 _lastName) public returns (bool success) {\n        if (address(_clientId) == 0) {\n            return false;\n        }\n        Client memory newClient = Client(_clientId, _firstName, _lastName);\n        if (_clientId != msg.sender) {\n            clientBalance[_clientId] = 0;\n        }\n        arrayOfClients.push(newClient);\n        return true;\n    }\n\n    function getBalance(address _clientId) public constant returns (uint _balance) {\n        return clientBalance[_clientId];\n    }\n\n    function getClients() public constant returns (Client[]) {\n        uint length = arrayOfClients.length;\n        Client[] memory clients = new Client[](length);\n        for (uint i = 0; i < length; i++) {\n            clients[i] = arrayOfClients[i];\n        }\n        return clients;\n    }\n\n    function getTransactions() public constant returns (Transaction[]) {\n        uint length = arrayOfTransactions.length;\n        Transaction[] memory transactions = new Transaction[](length);\n        for (uint i = 0; i < length; i++) {\n            transactions[i] = arrayOfTransactions[i];\n        }\n        return transactions;\n    }\n\n    function transfer(address _from, address _to, uint _money) public returns(bool) {\n        if (clientBalance[_from] == 0 || clientBalance[_from] < _money) {\n            return false;\n        }\n        Transaction memory newTransaction = Transaction(_from, _to, now, _money);\n        clientBalance[_from] -= _money;\n        clientBalance[_to] += _money;\n        arrayOfTransactions.push(newTransaction);\n        return true;\n    }\n}",
  "sourcePath": "/Users/antoineboxho/Developer/blockchain/Dapp/transactions-dapp/contracts/Transactions.sol",
  "compiler": {
    "name": "solc",
    "version": "0.4.18+commit.9cf6e910.Emscripten.clang"
  },
  "schemaVersion": "1.0.1",
  "updatedAt": "2017-12-09T00:35:25.409Z"
}